:100000006F004038000000000204000010040000EF
:1000100000000000000000000000000000000000E0
:1000200000000000000000000000000000000000D0
:100030001004000000000000100400000000000098
:100040001004000010040000100400001004000060
:100050001004000010040000100400001004000050
:100060001004000010040000100400001004000040
:100070001004000010040000100400001004000030
:100080001004000010040000100400001004000020
:100090001004000010040000100400000000000024
:1000A000634E050263C305042E86AA857D5515C2DD
:1000B00085466378B6006356C00006068606E36C84
:1000C000B6FE014563E4C500918D558D858205829C
:1000D000F5FA82808682C93F2E8582823305A04050
:1000E0006347B000B305B040C1B7B305B0408682E6
:1000F000653F3305A0408282868263C7050063495D
:1001000005005D372E858282B305B040E35B05FEB6
:100110003305A040513F3305B040828200003111C9
:1001200026C406C822C6AE84AA87B28599C60143F2
:1001300063D79600B684054319A00143A68633848D
:10014000964063530400014422863A853EC21AC099
:10015000D929024392472A87B30685000146B38511
:10016000C4406342B00463D304008144B385960065
:100170003385E540630403026372B7029307A0026C
:10018000A38FF5FE9386F5FF637AD700238FF5FEE4
:100190009386E5FF6374D700A38EF5FEC240324418
:1001A000A24451018280B385C70003C50500B38511
:1001B000C60005062380A5005DB7011106CE22CC3E
:1001C00026CA02C02A836357050089E685473303A0
:1001D000A0403EC0058A1304100619C2130410047F
:1001E000BA8459141A853AC81AC22EC61AC4DD3503
:1001F000A5472243B24542479376F50F63E1A70630
:100200009386060393F6F60F938714002380D40099
:100210001A853AC83EC62EC4413D9246A245B24711
:1002200042472A8363FBB602824699C69306D002F0
:100230002380D700938724003385E7409356F50148
:10024000AA962380070085860146FD17634BD600DA
:10025000F2406244D24405618280BE8461B7A296B6
:1002600055B7B305C70083C2070003C305000506E1
:100270002380550023806700C9BFB70700E093873C
:10028000470F9C438280011122CC370400E0130405
:10029000440F184006CE26CA2AC01377070C9306CF
:1002A000000C630BD70002C8AE84E9E11C4089C78B
:1002B00093F7070891E3D1378144F24062442685E1
:1002C000D244056182803386E4409D45B28663D383
:1002D000C5009D46B705080085050840137305084D
:1002E000631F030601C936C632C43AC27937B24623
:1002F0002246124793253600014699E11386D6FF20
:100300008247930537000808BE9536C43AC22D26A9
:10031000C24582471247370600E0A2461306860F01
:100320000CC20D45B385E700014683C205000506F2
:100330009307060133832700230053006385C6001B
:100340008505E314A6FE13864600136606F8230807
:10035000C1004246369710C0E34797F6B9BFFD1576
:10036000ADFD1C4093E7070C1CC0B9B70147EDB7C2
:10037000511122C206C42E843937A240228512446C
:1003800031018280970100209381C14713810100D0
:1003900013050008731005308D461705000013057E
:1003A00065C6558D7310553017050020130585C59A
:1003B00097050020938505C501466356B50010C119
:1003C0001105E34EB5FE170500001305654C9705B2
:1003D0000020938525C3170600201306A6C2638854
:1003E000C500144194C111059105E39AC5FEB7F704
:1003F00000E0054798C39307606B73901734730050
:100400002030371702401C47B7068000D58F1CC725
:10041000370700E01307470F1C4393F70708EDFF6A
:10042000F325003073263034F3262034732710343C
:10043000056513058585E92201A0AA8703C7070082
:1004400001E73385A74082808507CDBF130141FABC
:10045000A2CAA6C886CC2AC02EC23284B68402CADA
:100460008347040093061400A30FF10081EBE640DC
:1004700056445245C6441301C105828036C613074F
:1004800050026380E7021246824785451305F10159
:100490008297B24626C43684D247A244AA973ECA5F
:1004A000C1B7034714001306000393060003A30F0C
:1004B000E10032C6930724006312D7083E848146C8
:1004C0008147A54511A8139727000504BA9703474C
:1004D000F4FF8607B2978546130607FD1375F60FDE
:1004E000E3F3A5FE99C2A30FE1003EC8E14663D342
:1004F000F60036C81306C00681466318C7000347D6
:10050000040085460504A30FE1000346F10113072B
:1005100040066305E6066367C7029307800563002C
:10052000F60A93073006630DF60A31D21246824767
:1005300085451305F101829726C4B9BF93060002D1
:1005400036C6ADBF13075007630AE60213078007DC
:100550006307E60613073007E31AE6FC3ECC9387F1
:10056000440084403EC42685C93DE247AA856356BF
:10057000F008C2463246381826851DA093874400ED
:100580003EC495C61306B6F8181093361600884078
:100590000146A9451D31C24632463818AA850810C1
:1005A000BD3E1246AA85281882478297F5B5930763
:1005B000500718108546E30CF6FC8146C9BF8840F9
:1005C000130686FA938744001810854613361600E2
:1005D000C1453EC4DD36C2463246AA853818C1B789
:1005E000938744003EC49C40C2463246A30FF100AC
:1005F000381885451305F10165B7124626856DB794
:100600001301C1FD32CA2A862EC836CC8145140892
:100610001305003706C63ACE3ED036C0053DB2407F
:100620001301410282802A96AA876393C7008280C1
:100630002380B7008507D5BF81476313F60082800A
:100640003387F500834607003307F500850723004D
:10065000D700E5B7B7270240054798C3B717024050
:100660003707080123A207001307170898C33707A5
:100670009F0098C7371702401C4393966700E3DD3D
:1006800006FE5C43B7160240F19B93E727005CC36C
:100690002147DC42B18BE39EE7FEB70700E093877A
:1006A000870F23A00700B70700E09387470F1307C2
:1006B000000898C38280511106C4693FB7F700E073
:1006C0009847B72709009387077C3E97B7F600E065
:1006D0009C46998FE3CE07FEB7170240D843C176F8
:1006E0009386F67F758FD8C3984F3706F1FF7D1636
:1006F0001367072298CF37170140130707401443A9
:10070000F18E14C3D847B70620FFFD1613670720E4
:10071000D8C7D8471377F7DFD8C7B72701409387E3
:10072000074023A6070223A807021D47D8DB984BE2
:10073000758F98CB984BB706E000558F98CB9847AC
:10074000B7060E008506558F98C798471367870030
:1007500098C79847218B75FF98471367470098C73C
:1007600037270140130707401C47918BF5FFB71649
:1007700002409C4E056713070783D98F3717014046
:100780009CCE130707401C43056613060680C19BD9
:100790001CC31C43A165B702400093E797001CC32C
:1007A000DC4637F300E0D18FDCC6DC467D761306ED
:1007B000F67FF18FDCC6B7370140239407C21306DA
:1007C000F00F2396C7C203D647C1938707C01366AD
:1007D0001600239AC70003D607021366C6002390AB
:1007E000C70203D6870113660606239CC7001306BB
:1007F0000008D0DB03D647044D8E2392C70403D6EE
:100800000700136616002390C700904E1366060279
:1008100090CE14433D66130606A6C19A14C3144332
:1008200093E6160014C337270140C166130707403B
:10083000FD160C47B3E555000CC70C438989F5DD5F
:100840006C47F58DCCDB032583003295832583002F
:10085000898DE3CD05FEF1BF44454144204D5354FD
:10086000415455533A25303878204D5456414C3A2E
:1008700025303878204D43415553453A2530387856
:0C088000204D4550433A253038780A00DE
:00000001FF
